:020000040800F2
:1000000000500020D91C00083D1C0008451C0008B9
:100010004D1C0008551C00085D1C00080000000075
:10002000000000000000000000000000651C000847
:10003000711C0008000000007D1C0008891C0008DD
:10004000211D0008211D0008211D0008211D000898
:10005000211D0008211D0008211D0008211D000888
:10006000211D0008211D0008211D0008951C000805
:10007000211D0008211D0008211D0008211D000868
:10008000211D0008211D0008211D0008211D000858
:10009000211D0008211D0008211D0008211D000848
:1000A000211D0008211D0008211D0008211D000838
:1000B000211D0008211D0008A91C0008211D0008A1
:1000C000211D0008211D0008211D0008211D000818
:1000D000211D0008211D0008211D0008211D000808
:1000E000BD1C0008211D0008211D000800000000A3
:1000F0000000000000000000000000000000000000
:0C01000000000000000000005FF808F1A3
:1001100010B5054C237833B9044B13B10448AFF341
:1001200000800123237010BD70000020000000003B
:100130001C4C000808B5034B1BB103490348AFF33F
:10014000008008BD00000000740000201C4C000866
:1001500081F0004102E000BF83F0004330B54FEA78
:1001600041044FEA430594EA050F08BF90EA020FE5
:100170001FBF54EA000C55EA020C7FEA645C7FEA78
:10018000655C00F0E2804FEA5454D4EB5555B8BF9B
:100190006D420CDD2C4480EA020281EA030382EA0C
:1001A000000083EA010180EA020281EA0303362D9E
:1001B00088BF30BD11F0004F4FEA01314FF4801C71
:1001C0004CEA113102D0404261EB410113F0004F83
:1001D0004FEA03334CEA133302D0524263EB43033A
:1001E00094EA050F00F0A780A4F10104D5F1200ED8
:1001F0000DDB02FA0EFC22FA05F2801841F1000133
:1002000003FA0EF2801843FA05F359410EE0A5F106
:1002100020050EF1200E012A03FA0EFC28BF4CF037
:10022000020C43FA05F3C01851EBE37101F00045ED
:1002300007D54FF0000EDCF1000C7EEB00006EEBFA
:100240000101B1F5801F1BD3B1F5001F0CD3490884
:100250005FEA30004FEA3C0C04F101044FEA4452DB
:1002600012F5800F80F09A80BCF1004F08BF5FEA62
:10027000500C50F1000041EB045141EA050130BD42
:100280005FEA4C0C404141EB0101013C28BFB1F554
:10029000801FE9D291F0000F04BF01460020B1FA9F
:1002A00081F308BF2033A3F10B03B3F120020CDA72
:1002B0000C3208DD02F1140CC2F10C0201FA0CF050
:1002C00021FA02F10CE002F11402D8BFC2F1200CB5
:1002D00001FA02F120FA0CFCDCBF41EA0C0190406B
:1002E000E41AA2BF01EB0451294330BD6FEA0404B4
:1002F0001F3C1CDA0C340EDC04F11404C4F120029F
:1003000020FA04F001FA02F340EA030021FA04F3B0
:1003100045EA030130BDC4F10C04C4F1200220FA07
:1003200002F001FA04F340EA0300294630BD21FA45
:1003300004F0294630BD94F0000F83F4801306BF0B
:1003400081F480110134013D4EE77FEA645C18BFFF
:100350007FEA655C29D094EA050F08BF90EA020F96
:1003600005D054EA000C04BF1946104630BD91EA8E
:10037000030F1EBF0021002030BD5FEA545C05D191
:100380004000494128BF41F0004130BD14F58004D0
:100390003CBF01F5801130BD01F0004545F0FE4144
:1003A00041F470014FF0000030BD7FEA645C1ABF79
:1003B000194610467FEA655C1CBF0B46024650EAB0
:1003C000013406BF52EA033591EA030F41F40021DC
:1003D00030BD00BF90F0000F04BF0021704730B562
:1003E0004FF4806404F132044FF000054FF0000137
:1003F00050E700BF90F0000F04BF0021704730B5F8
:100400004FF4806404F1320410F0004548BF4042CC
:100410004FF000013EE700BF42004FEAE2014FEA21
:1004200031014FEA02701FBF12F07F4393F07F4FFC
:1004300081F06051704732F07F4208BF704793F0FF
:100440007F4F04BF41F40021704730B54FF4607412
:1004500001F0004521F000411CE700BF50EA010215
:1004600008BF704730B54FF000050AE050EA0102BE
:1004700008BF704730B511F0004502D5404261EB2E
:1004800041014FF4806404F132045FEA915C3FF46F
:10049000D8AE4FF003025FEADC0C18BF03325FEA0C
:1004A000DC0C18BF033202EBDC02C2F1200300FABD
:1004B00003FC20FA02F001FA03FE40EA0E0021FAE2
:1004C00002F11444BDE600BF70B54FF0FF0C4CF4D0
:1004D000E06C1CEA11541DBF1CEA135594EA0C0F82
:1004E00095EA0C0F00F0DEF82C4481EA030621EABD
:1004F0004C5123EA4C5350EA013518BF52EA0335F8
:1005000041F4801143F4801338D0A0FB02CE4FF0A9
:100510000005E1FB02E506F00042E0FB03E54FF0D9
:100520000006E1FB03569CF0000F18BF4EF0010ED1
:10053000A4F1FF04B6F5007F64F5407404D25FEACD
:100540004E0E6D4146EB060642EAC62141EA555180
:100550004FEAC52040EA5E504FEACE2EB4F1FD0CC2
:1005600088BFBCF5E06F1ED8BEF1004F08BF5FEA40
:10057000500E50F1000041EB045170BD06F00046F2
:1005800046EA010140EA020081EA0301B4EB5C049F
:10059000C2BFD4EB0C0541EA045170BD41F4801197
:1005A0004FF0000E013C00F3AB8014F1360FDEBFBC
:1005B000002001F0004170BDC4F10004203C35DA98
:1005C0000C341BDC04F11404C4F1200500FA05F31B
:1005D00020FA04F001FA05F240EA020001F00042BC
:1005E00021F0004110EBD37021FA04F642EB060132
:1005F0005EEA430E08BF20EAD37070BDC4F10C045C
:10060000C4F1200500FA04F320FA05F001FA04F21F
:1006100040EA020001F0004110EBD37041F100010B
:100620005EEA430E08BF20EAD37070BDC4F1200516
:1006300000FA05F24EEA020E20FA04F301FA05F27E
:1006400043EA020321FA04F001F0004121FA04F226
:1006500020EA020000EBD3705EEA430E08BF20EAF6
:10066000D37070BD94F0000F0FD101F00046400030
:1006700041EB010111F4801F08BF013CF7D041EAB2
:10068000060195F0000F18BF704703F000465200B6
:1006900043EB030313F4801F08BF013DF7D043EA87
:1006A0000603704794EA0C0F0CEA135518BF95EA3D
:1006B0000C0F0CD050EA410618BF52EA4306D1D1C4
:1006C00081EA030101F000414FF0000070BD50EAE3
:1006D000410606BF1046194652EA430619D094EA6D
:1006E0000C0F02D150EA013613D195EA0C0F05D157
:1006F00052EA03361CBF104619460AD181EA0301AB
:1007000001F0004141F0FE4141F470014FF0000062
:1007100070BD41F0FE4141F4780170BD70B54FF0FD
:10072000FF0C4CF4E06C1CEA11541DBF1CEA13557D
:1007300094EA0C0F95EA0C0F00F0A7F8A4EB05045F
:1007400081EA030E52EA03354FEA013100F0888056
:100750004FEA03334FF0805545EA131343EA12631F
:100760004FEA022245EA111545EA10654FEA0026D4
:100770000EF000419D4208BF964244F1FD0404F58D
:10078000407402D25B084FEA3202B61A65EB0305E9
:100790005B084FEA32024FF480104FF4002CB6EBA6
:1007A000020E75EB030E22BFB61A754640EA0C0026
:1007B0005B084FEA3202B6EB020E75EB030E22BF66
:1007C000B61A754640EA5C005B084FEA3202B6EBA7
:1007D000020E75EB030E22BFB61A754640EA9C0066
:1007E0005B084FEA3202B6EB020E75EB030E22BF36
:1007F000B61A754640EADC0055EA060E18D04FEAF4
:10080000051545EA16754FEA06164FEAC30343EA93
:1008100052734FEAC2025FEA1C1CC0D111F4801F60
:100820000BD141EA00014FF000004FF0004CB6E759
:1008300011F4801F04BF01430020B4F1FD0C88BFF8
:10084000BCF5E06F3FF6AFAEB5EB030C04BFB6EB03
:10085000020C5FEA500C50F1000041EB045170BDF6
:100860000EF0004E4EEA113114EB5C04C2BFD4EB23
:100870000C0541EA045170BD41F480114FF0000EA7
:10088000013C90E645EA060E8DE60CEA135594EA23
:100890000C0F08BF95EA0C0F3FF43BAF94EA0C0F26
:1008A0000AD150EA01347FF434AF95EA0C0F7FF49B
:1008B00025AF104619462CE795EA0C0F06D152EAEF
:1008C00003353FF4FDAE1046194622E750EA4106D3
:1008D00018BF52EA43067FF4C5AE50EA41047FF4E4
:1008E0000DAF52EA43057FF4EBAE12E74FF0FF3C49
:1008F00006E000BF4FF0010C02E000BF4FF0010C1A
:100900004DF804CD4FEA410C7FEA6C5C4FEA430C92
:1009100018BF7FEA6C5C1BD001B050EA410C0CBFE1
:1009200052EA430C91EA030F02BF90EA020F002043
:10093000704710F1000F91EA030F58BF994208BFAA
:1009400090422CBFD8176FEAE37040F00100704767
:100950004FEA410C7FEA6C5C02D150EA013C07D1BE
:100960004FEA430C7FEA6C5CD6D152EA033CD3D009
:100970005DF8040B704700BF8446104662468C4603
:100980001946634600E000BF01B5FFF7B7FF002836
:1009900048BF10F1000F01BD4DF808EDFFF7F4FF5F
:1009A0000CBF012000205DF808FB00BF4DF808EDEA
:1009B000FFF7EAFF34BF012000205DF808FB00BF0D
:1009C0004DF808EDFFF7E0FF94BF012000205DF82F
:1009D00008FB00BF4DF808EDFFF7CEFF94BF0120E4
:1009E00000205DF808FB00BF4DF808EDFFF7C4FFDD
:1009F00034BF012000205DF808FB00BF4FEA410C26
:100A00007FEA6C5C02D150EA013C0AD14FEA430C08
:100A10007FEA6C5C02D152EA033C02D14FF0000045
:100A200070474FF0010070474A0011D212F50012D2
:100A300011D20DD56FF47873B3EB62520ED44FEA36
:100A4000C12343F0004343EA505323FA02F07047B6
:100A50004FF00000704750EA013002D14FF0FF30F4
:100A600070474FF0000070474FEA4102B2F1E04397
:100A700024BFB3F5001CDCF1FE5C0DD901F0004C85
:100A80004FEAC0024CEA5070B2F1004F40EB8300D5
:100A900008BF20F00100704711F0804F21D113F101
:100AA0003872BCBF01F00040704741F480114FEA3A
:100AB0005252C2F11802C2F1200C10FA0CF320FAC3
:100AC00002F018BF40F001004FEAC1234FEAD323E0
:100AD00003FA0CFC40EA0C0023FA02F34FEA43034A
:100AE000CCE77FEA625307D150EA01331EBF4FF0D3
:100AF000FE4040F44000704701F0004040F0FE40EE
:100B000040F40000704700BF80F0004002E000BFEA
:100B100081F0004142001FBF5FEA410392EA030FE8
:100B20007FEA226C7FEA236C6AD04FEA1262D2EB32
:100B30001363C1BFD218414048404140B8BF5B4237
:100B4000192B88BF704710F0004F40F4000020F0D0
:100B50007F4018BF404211F0004F41F4000121F0E6
:100B60007F4118BF494292EA030F3FD0A2F1010230
:100B700041FA03FC10EB0C00C3F1200301FA03F16E
:100B800000F0004302D5494260EB4000B0F5000F91
:100B900013D3B0F1807F06D340084FEA310102F150
:100BA0000102FE2A51D2B1F1004F40EBC25008BF02
:100BB00020F0010040EA03007047490040EB0000CC
:100BC000013A28BFB0F5000FEDD2B0FA80FCACF1CD
:100BD000080CB2EB0C0200FA0CF0AABF00EBC250FA
:100BE00052421843BCBFD0401843704792F0000FE8
:100BF00081F4000106BF80F400000132013BB5E73B
:100C00004FEA41037FEA226C18BF7FEA236C21D0B0
:100C100092EA030F04D092F0000F08BF0846704715
:100C200090EA010F1CBF0020704712F07F4F04D1E3
:100C3000400028BF40F00040704712F100723CBFF6
:100C400000F50000704700F0004343F0FE4040F420
:100C5000000070477FEA226216BF08467FEA2363DE
:100C60000146420206BF5FEA412390EA010F40F4C9
:100C7000800070474FF0000304E000BF10F0004315
:100C800048BF40425FEA000C08BF704743F09643FC
:100C900001464FF000001CE050EA010208BF704717
:100CA0004FF000030AE000BF50EA010208BF70479E
:100CB00011F0004302D5404261EB41015FEA010CB3
:100CC00002BF84460146002043F0B64308BFA3F1AB
:100CD0008053A3F50003BCFA8CF2083AA3EBC2538D
:100CE00010DB01FA02FC634400FA02FCC2F12002AC
:100CF000BCF1004F20FA02F243EB020008BF20F0E3
:100D00000100704702F1200201FA02FCC2F1200248
:100D100050EA4C0021FA02F243EB020008BF20EA3D
:100D2000DC7070474FF0FF0C1CEAD0521EBF1CEA6B
:100D3000D15392EA0C0F93EA0C0F6FD01A4480EA59
:100D4000010C400218BF5FEA41211ED04FF0006342
:100D500043EA501043EA5111A0FB01310CF000406E
:100D6000B1F5000F3EBF490041EAD3715B0040EA94
:100D7000010062F17F02FD2A1DD8B3F1004F40EB64
:100D8000C25008BF20F00100704790F0000F0CF037
:100D9000004C08BF49024CEA502040EA51207F3AFB
:100DA000C2BFD2F1FF0340EAC250704740F40000D6
:100DB0004FF00003013A5DDC12F1190FDCBF00F0C7
:100DC00000407047C2F10002410021FA02F1C2F175
:100DD000200200FA02FC5FEA310040F1000053EA11
:100DE0004C0308BF20EADC70704792F0000F00F05F
:100DF000004C02BF400010F4000F013AF9D040EA65
:100E00000C0093F0000F01F0004C02BF490011F4F8
:100E1000000F013BF9D041EA0C018FE70CEAD153F6
:100E200092EA0C0F18BF93EA0C0F0AD030F0004C76
:100E300018BF31F0004CD8D180EA010000F000402A
:100E4000704790F0000F17BF90F0004F084691F0E8
:100E5000000F91F0004F14D092EA0C0F01D1420222
:100E60000FD193EA0C0F03D14B0218BF084608D1EB
:100E700080EA010000F0004040F0FE4040F4000035
:100E8000704740F0FE4040F4400070474FF0FF0CC8
:100E90001CEAD0521EBF1CEAD15392EA0C0F93EA0F
:100EA0000C0F69D0A2EB030280EA010C49024FEA61
:100EB000402037D04FF0805343EA111143EA10131A
:100EC0000CF000408B4238BF5B0042F17D024FF4D2
:100ED000000C8B4224BF5B1A40EA0C00B3EB510FAD
:100EE00024BFA3EB510340EA5C00B3EB910F24BF96
:100EF000A3EB910340EA9C00B3EBD10F24BFA3EB1B
:100F0000D10340EADC001B0118BF5FEA1C1CE0D1E2
:100F1000FD2A3FF650AF8B4240EBC25008BF20F095
:100F2000010070470CF0004C4CEA50207F32C2BFE9
:100F3000D2F1FF0340EAC250704740F400004FF086
:100F40000003013A37E792F0000F00F0004C02BFB7
:100F5000400010F4000F013AF9D040EA0C0093F081
:100F6000000F01F0004C02BF490011F4000F013BDB
:100F7000F9D041EA0C0195E70CEAD15392EA0C0F43
:100F800008D142027FF47DAF93EA0C0F7FF470AF7B
:100F9000084676E793EA0C0F04D14B023FF44CAFBE
:100FA00008466EE730F0004C18BF31F0004CCAD153
:100FB00030F000427FF45CAF31F000437FF43CAF8F
:100FC0005FE700BF4FF0FF3C06E000BF4FF0010CB1
:100FD00002E000BF4FF0010C4DF804CD4FEA400293
:100FE0004FEA41037FEA226C18BF7FEA236C11D0DD
:100FF00001B052EA530C18BF90EA010F58BFB2EB90
:10100000030088BFC81738BF6FEAE17018BF40F00F
:10101000010070477FEA226C02D15FEA402C05D1C3
:101020007FEA236CE4D15FEA412CE1D05DF8040B48
:10103000704700BF844608466146FFE70FB5FFF7DB
:10104000C9FF002848BF10F1000F0FBD4DF808ED93
:10105000FFF7F4FF0CBF012000205DF808FB00BF84
:101060004DF808EDFFF7EAFF34BF012000205DF8DE
:1010700008FB00BF4DF808EDFFF7E0FF94BF01202B
:1010800000205DF808FB00BF4DF808EDFFF7D2FF28
:1010900094BF012000205DF808FB00BF4DF808ED6B
:1010A000FFF7C8FF34BF012000205DF808FB00BF38
:1010B00080B483B000AF78600B46FB70FB78013BD7
:1010C000032B5BD801A252F823F000BFDD1000080B
:1010D000051100082D110008551100087B68002239
:1010E0001A707B68013300221A707B680233002279
:1010F0001A707B68033300221A707B680433002265
:101100001A703BE07B6801221A707B680133012270
:101110001A707B68023301221A707B680333012244
:101120001A707B68043301221A7027E07B68012261
:101130001A707B68013301221A707B680233002227
:101140001A707B68033300221A707B680433002214
:101150001A7013E07B6801221A707B680133002249
:101160001A707B68023300221A707B6803330022F6
:101170001A707B68043300221A7000BF00BF0C375E
:10118000BD4680BC704700BF80B586B000AF7860B8
:1011900039604FF000037B614FF00003FB600023D8
:1011A0003B6118E03B699B007A6813441B683A690D
:1011B000920079680A44126802FB03F31846FFF7AD
:1011C00059FD034619467869FFF7A4FC03467B6185
:1011D0003B6901333B613A693B689A42E2DB38681C
:1011E000FFF74CFD034619467869FFF74FFE0346AB
:1011F0007B617869FFF710F902460B4610461946E5
:1012000003F012FC02460B4610461946FFF72CFC71
:101210000346FB60FB6818461837BD4680BD0000DA
:1012200080B500AF00F07EFD00F0F8F800F00AFB9A
:1012300000F0EAFA00F08CF900F04CF900F014FA32
:1012400000F094FA0021644802F050FD0421624845
:1012500002F04CFD0C21604802F048FD00215F487F
:1012600002F044FD04215D4802F040FD5C4801F0BD
:101270007DF95C4802F090FC5B4B1B78002B16D08C
:10128000594B00221A70594B1B78042B03D1574B32
:1012900001221A7005E0554B1B780133DAB2534B2B
:1012A0001A70524B1B7819465148FFF701FF514BFA
:1012B0001B78002B0CD04F4B00221A704E4B1B7822
:1012C0009B004E4A134401221946454800F064FE33
:1012D0004B4B1B78002B3ED0494B00221A70FA2151
:1012E0004648FFF751FF0346464A1360454B1B68CB
:1012F00045491846FFF7D2FE0346002B02D0414B6A
:10130000414A1A603F4B1B6840491846FFF7A8FE48
:101310000346002B02D03B4B3C4A1A60394B1B68FA
:101320001846FFF779F82AA3D3E90023FFF7F6F967
:1013300002460B46104619464FF00002344BFFF7A9
:10134000C3F802460B4610461946FFF76DFB0346ED
:101350009AB2304B1A802F4B1B881A46244B1B78AD
:1013600002FB03F303F596724FF080435A63294B57
:101370001B881A461E4B5B7802FB03F303F596723B
:101380004FF080439A63234B1B881A46184B9B7877
:1013900002FB03F303F596724FF080431A641D4B72
:1013A0001B881A46124BDB7802FB03F303F5967297
:1013B000194B5A63174B1B881A460D4B1B7902FBBE
:1013C00003F303F59672144B9A6355E7AFF300806D
:1013D000000000000088A340000100204801002018
:1013E0008C00002090010020CD050020020000208C
:1013F000C8050020CE050020C4050020D80100202B
:10140000CF050020C005002000401C450000E1433E
:1014100000208C40000000200004004080B594B003
:1014200000AF07F1280328220021184603F0CAFA6A
:1014300007F1140300221A605A609A60DA601A6198
:101440003B1D00221A605A609A60DA600123BB6279
:101450004FF48033FB6200233B630123BB63022311
:101460007B644FF48033BB644FF4E013FB6407F1FB
:101470002803184601F0D8FD0346002B01D000F0E8
:10148000A1FA0F237B610223BB610023FB614FF4B0
:1014900080633B6200237B6207F11403022118463C
:1014A00002F044F80346002B01D000F08BFA02232F
:1014B0007B604FF44043FB603B1D184602F0B0F9DF
:1014C0000346002B01D000F07DFA00BF5037BD4627
:1014D00080BD000080B584B000AF3B1D00221A60C3
:1014E0005A609A60184B194A1A60174B00229A608A
:1014F000154B00221A73144B00221A75124B4FF42D
:101500006022DA61104B00225A600F4B01221A61EF
:101510000D4800F069FC0346002B01D000F052FAA0
:1015200009237B600123BB600123FB603B1D19463F
:10153000054800F021FE0346002B01D000F042FADE
:1015400000BF1037BD4680BD8C0000200024014044
:1015500080B58EB000AF07F1280300221A605A60F0
:101560009A60DA6007F1200300221A605A603B1D7E
:1015700000221A605A609A60DA601A615A619A61B0
:10158000384B4FF080421A60364B8F225A60354BF1
:1015900000229A60334B42F20F72DA60314B002224
:1015A0001A61304B00229A612E4802F0A5FA0346D8
:1015B000002B01D000F006FA4FF48053BB6207F114
:1015C00028031946274802F0FDFD0346002B01D0F1
:1015D00000F0F8F9234802F031FB0346002B01D05C
:1015E00000F0F0F900233B6200237B6207F1200347
:1015F00019461C4803F076F90346002B01D000F091
:10160000E1F960237B600023BB600023FB600023C3
:101610007B613B1D00221946124802F011FD034672
:10162000002B01D000F0CEF93B1D042219460D48D5
:1016300002F006FD0346002B01D000F0C3F93B1D6C
:101640000C221946074802F0FBFC0346002B01D090
:1016500000F0B8F9034800F0A1FA00BF3837BD46E2
:1016600080BD00BF0001002080B58EB000AF07F143
:10167000280300221A605A609A60DA6007F120039A
:1016800000221A605A603B1D00221A605A609A605C
:10169000DA601A615A619A61324B334A1A60314BEF
:1016A0008F225A602F4B00229A602E4B42F20F720B
:1016B000DA602C4B00221A612A4B00229A612948D9
:1016C00002F01AFA0346002B01D000F07BF94FF428
:1016D0008053BB6207F128031946224802F072FDCD
:1016E0000346002B01D000F06DF91E4802F0A6FA67
:1016F0000346002B01D000F065F900233B62002374
:101700007B6207F120031946164803F0EBF8034605
:10171000002B01D000F056F960237B600023BB60F2
:101720000023FB6000237B613B1D002219460D480E
:1017300002F086FC0346002B01D000F043F93B1D6C
:1017400004221946074802F07BFC0346002B01D017
:1017500000F038F9034800F021FA00BF3837BD46E1
:1017600080BD00BF480100200004004080B586B065
:1017700000AF07F1080300221A605A609A60DA602D
:101780003B4600221A605A601D4B1E4A1A601C4BD1
:1017900041F61F425A601A4B00229A60184B0922E8
:1017A000DA60174B00221A61154B00229A61144827
:1017B00002F0A2F90346002B01D000F003F94FF428
:1017C0008053BB6007F1080319460D4802F0FAFC8C
:1017D0000346002B01D000F0F5F800233B60002306
:1017E0007B603B461946064803F07CF80346002B15
:1017F00001D000F0E7F800BF1837BD4680BD00BF3C
:10180000900100200008004080B582B000AF0C4B72
:101810005B690B4A43F001035361094B5B6903F0B9
:1018200001037B607B68002200210B2001F023F87C
:101830000B2001F03CF800BF0837BD4680BD00BF5B
:101840000010024080B588B000AF07F110030022FD
:101850001A605A609A60DA602E4B9B692D4A43F0F9
:10186000100393612B4B9B6903F01003FB60FB6833
:10187000284B9B69274A43F020039361254B9B69C2
:1018800003F02003BB60BB68224B9B69214A43F0F5
:10189000040393611F4B9B6903F004037B607B6827
:1018A0001C4B9B691B4A43F008039361194B9B69CE
:1018B00003F008033B603B6800224FF400511648D8
:1018C00001F082FB4FF400533B6101237B61002355
:1018D000BB610223FB6107F1100319460E4801F0BA
:1018E000EFF94FF400633B610C4B7B610123BB615B
:1018F00007F1100319460A4801F0E2F9002200211D
:10190000282000F0B8FF282000F0D1FF00BF2037CA
:10191000BD4680BD001002400010014000002110B3
:10192000000C014080B483B000AF78600C4B1B7892
:10193000F92B09D90A4B00221A700A4B1B78013384
:10194000DAB2084B1A7005E0054B1B780133DAB2A6
:10195000034B1A7000BF0C37BD4680BC704700BFF8
:10196000C4050020CF05002080B483B000AF03463B
:10197000FB80FB88B3F5006F05D1054B1B78013365
:10198000DAB2034B1A7000BF0C37BD4680BC7047FB
:10199000CD05002080B483B000AF78607B68074A33
:1019A000934205D1064B1B780133DAB2044B1A700F
:1019B00000BF0C37BD4680BC704700BF90010020BF
:1019C000CE05002080B400AF72B600BF00BFFDE7B7
:1019D00080B485B000AF154B9B69144A43F00103F6
:1019E0009361124B9B6903F00103BB60BB680F4B13
:1019F000DB690E4A43F08053D3610C4BDB6903F083
:101A000080537B607B680A4B5B68FB60FB6823F05C
:101A1000E063FB60FB6843F00073FB60044AFB6813
:101A2000536000BF1437BD4680BC704700100240B1
:101A30000000014080B588B000AF786007F1100366
:101A400000221A605A609A60DA607B681B68284A34
:101A5000934249D1274B9B69264A43F40073936113
:101A6000244B9B6903F40073FB60FB68214B9B696B
:101A7000204A43F0080393611E4B9B6903F008035F
:101A8000BB60BB6802233B6103237B6107F110034A
:101A90001946194801F014F9184B194A1A60174BE6
:101AA00000225A60154B00229A60144B8022DA60A3
:101AB000124B4FF480721A61104B4FF480625A61DE
:101AC0000E4B00229A610D4B0022DA610B4800F0A8
:101AD00009FF0346002B01D0FFF774FF7B68074A1C
:101AE0001A62064A7B68536200BF2037BD4680BD3C
:101AF0000024014000100240000C0140BC00002006
:101B00000800024080B586B000AF78607B681B6833
:101B1000B3F1804F0CD11E4BDB691D4A43F001032A
:101B2000D3611B4BDB6903F001037B617B692AE016
:101B30007B681B68174A93420CD1154BDB69144A2A
:101B400043F00203D361124BDB6903F002033B61F4
:101B50003B6918E07B681B680F4A934213D10C4B1A
:101B6000DB690B4A43F00403D361094BDB6903F0E3
:101B70000403FB60FB68002200211E2000F07BFEB6
:101B80001E2000F094FE00BF1837BD4680BD00BF88
:101B900000100240000400400008004080B588B0FA
:101BA00000AF786007F1100300221A605A609A6053
:101BB000DA607B681B68B3F1804F18D11C4B9B69BE
:101BC0001B4A43F004039361194B9B6903F0040320
:101BD000FB60FB680B233B6102237B610223FB61FB
:101BE00007F110031946134801F06AF81CE07B68FE
:101BF0001B68114A934217D10D4B9B690C4A43F065
:101C0000040393610A4B9B6903F00403BB60BB6848
:101C1000C0233B6102237B610223FB6107F11003B8
:101C20001946044801F04CF800BF2037BD4680BD7E
:101C300000100240000801400004004080B400AFE2
:101C400000BFFDE780B400AF00BFFDE780B400AF88
:101C500000BFFDE780B400AF00BFFDE780B400AF78
:101C600000BFFDE780B400AF00BFBD4680BC704739
:101C700080B400AF00BFBD4680BC704780B400AFE9
:101C800000BFBD4680BC704780B500AF00F090F843
:101C900000BF80BD80B500AF024800F0DDFE00BF90
:101CA00080BD00BFBC00002080B500AF024802F03C
:101CB000BFF800BF80BD00BF9001002080B500AF1D
:101CC0004FF4006001F098F900BF80BD80B400AF10
:101CD00000BFBD4680BC7047FFF7F8FF0B480C49BA
:101CE0000C4A002302E0D458C4500433C4188C4278
:101CF000F9D3094A094C002301E013600432A242DF
:101D0000FBD302F06DFEFFF78BFA70470000002056
:101D1000700000207C4C0008700000200C070020A0
:101D2000FEE7000080B500AF084B1B68074A43F090
:101D300010031360032000F093FD0F2000F008F85B
:101D4000FFF746FE0023184680BD00BF002002407A
:101D500080B582B000AF7860124B1A68124B1B78C6
:101D600019464FF47A73B3FBF1F3B2FBF3F3184661
:101D700000F0ABFD0346002B01D001230EE07B6891
:101D80000F2B0AD8002279684FF0FF3000F073FD66
:101D9000064A7B681360002300E0012318460837D9
:101DA000BD4680BD040000200C000020080000207B
:101DB00080B400AF054B1B781A46054B1B681344D3
:101DC000034A136000BFBD4680BC70470C00002072
:101DD000D005002080B400AF024B1B681846BD46FA
:101DE00080BC7047D005002080B586B000AF786019
:101DF0000023FB7500233B610023BB600023FB60D5
:101E00007B68002B01D10123BEE07B689B68002B1F
:101E10007B689B6A002B09D17B680022DA627B68B1
:101E2000002283F824207868FFF704FE786800F029
:101E3000F5FA0346FB757B689B6A03F01003002BE1
:101E400040F09980FB7D002B40F095807B689B6A79
:101E500023F4885323F0020343F002027B689A6262
:101E60007B685A687B68DB691A437B681B7B5B0075
:101E70001343BA681343BB607B689B68B3F5807FEC
:101E800003D07B689B68012B02D14FF4807300E084
:101E900000233A6913433B617B681B7D012B19D1F9
:101EA0007B681B7B002B09D17B689B69013B5A0334
:101EB0003B69134343F400633B610BE07B689B6A1F
:101EC00043F020027B689A627B68DB6A43F0010280
:101ED0007B68DA627B681B685B6823F469417B6816
:101EE0001B683A690A435A607B681B689A68284BEA
:101EF00013407A681268B9680B4393607B689B68EB
:101F0000B3F5807F03D07B689B68012B04D17B688D
:101F10001B69013B1B05FB607B681B68DB6A23F4C4
:101F200070017B681B68FA680A43DA627B681B6889
:101F30009A68184B1340BA689A420BD17B6800220A
:101F4000DA627B689B6A23F0030343F001027B683B
:101F50009A6218E07B689B6A23F0120343F0100238
:101F60007B689A627B68DB6A43F001027B68DA6215
:101F70000123FB7507E07B689B6A43F010027B68D6
:101F80009A620123FB75FB7D18461837BD4680BD5C
:101F9000FDF7E1FFFE0E1FFF80B586B000AFF860D1
:101FA000B9607A600023FB75FB681B68644A934242
:101FB00004D0FB681B68634A934206D1604B5B68A0
:101FC00003F47023002B40F0B380FB6893F82430B7
:101FD000012B01D10223AEE0FB68012283F824200B
:101FE000F86800F0C1F90346FB75FB7D002B40F05B
:101FF0009A80FB689B6A23F4706323F0010343F427
:102000008072FB689A62FB681B684E4A934205D156
:102010004B4B5B6803F47023002B15D1FB689B6A64
:1020200023F48012FB689A62FB681B685B6803F408
:102030008063002B26D0FB689B6A23F4405343F453
:102040008052FB689A621DE0FB689B6A43F4801231
:10205000FB689A62FB681B68394A934204D0FB68AC
:102060001B68384A93420DD1354B5B6803F480639B
:10207000002B07D0FB689B6A23F4405343F4805243
:10208000FB689A62FB689B6A03F48053002B06D0BE
:10209000FB68DB6A23F00602FB68DA6202E0FB6899
:1020A0000022DA62FB68002283F82420FB681B6AA6
:1020B000254A9A62FB681B6A244ADA62FB681B6A3B
:1020C000234A1A63FB681B686FF002021A60FB6800
:1020D0001B689A68FB681B6842F480729A60FB6810
:1020E000186AFB681B684C331946BA687B6800F0B5
:1020F00053FCFB681B689B6803F46023B3F5602FF7
:1021000008D1FB681B689A68FB681B6842F4A00250
:102110009A600FE0FB681B689A68FB681B6842F4D2
:1021200080129A6006E0FB68002283F8242001E018
:102130000123FB75FB7D18461837BD4680BD00BFE7
:1021400000240140002801409F2400081B250008AE
:102150003725000880B483B000AF786000BF0C372B
:10216000BD4680BC704780B483B000AF786000BFCC
:102170000C37BD4680BC704780B485B000AF786036
:1021800039600023FB730023BB607B6893F8243025
:10219000012B01D10223DCE07B68012283F824209B
:1021A0003B685B68062B1CD87B681B68596B3B68D7
:1021B0005A6813469B001344053B1F2202FA03F39F
:1021C000DB4319403B6818683B685A6813469B001C
:1021D0001344053B00FA03F27B681B680A435A6309
:1021E0003CE03B685B680C2B1CD87B681B68196B58
:1021F0003B685A6813469B001344233B1F2202FA94
:1022000003F3DB4319403B6818683B685A68134680
:102210009B001344233B00FA03F27B681B680A43CC
:102220001A631BE07B681B68D96A3B685A681346CF
:102230009B001344413B1F2202FA03F3DB43194086
:102240003B6818683B685A6813469B001344413B3F
:1022500000FA03F27B681B680A43DA623B681B687A
:10226000092B1CD97B681B68D9683B681A68134620
:102270005B0013441E3B072202FA03F3DB431940C1
:102280003B6898683B681A6813465B0013441E3B22
:1022900000FA03F27B681B680A43DA6019E07B6886
:1022A0001B6819693B681A6813465B0013440722D0
:1022B00002FA03F3DB4319403B6898683B681A68ED
:1022C00013465B00134400FA03F27B681B680A4361
:1022D0001A613B681B68102B03D03B681B68112BED
:1022E00032D17B681B681D4A934225D17B681B68ED
:1022F0009B6803F40003002B26D17B681B689A6857
:102300007B681B6842F400029A603B681B68102BD4
:102310001AD1134B1B68134AA2FB03239A0C1346D2
:102320009B0013445B00BB6002E0BB68013BBB60E9
:10233000BB68002BF9D107E07B689B6A43F0200261
:102340007B689A620123FB737B68002283F8242058
:10235000FB7B18461437BD4680BC70470024014003
:102360000400002083DE1B4380B584B000AF78609A
:102370000023FB600023BB607B681B689B6803F045
:102380000103012B40D07B681B689A687B681B683F
:1023900042F001029A601F4B1B681F4AA2FB0323F5
:1023A0009B0CBB6002E0BB68013BBB60BB68002BC1
:1023B000F9D1FFF70FFDF8601FE0FFF70BFD0246B4
:1023C000FB68D31A022B18D97B681B689B6803F043
:1023D0000103012B11D07B689B6A43F010027B68DC
:1023E0009A627B68DB6A43F001027B68DA627B6891
:1023F000002283F82420012307E07B681B689B6888
:1024000003F00103012BD8D1002318461037BD4635
:1024100080BD00BF0400002083DE1B4380B584B074
:1024200000AF78600023FB607B681B689B6803F04B
:102430000103012B2ED17B681B689A687B681B689F
:1024400022F001029A60FFF7C5FCF8601BE0FFF77D
:10245000C1FC0246FB68D31A022B14D97B681B68A7
:102460009B6803F00103012B0DD17B689B6A43F04D
:1024700010027B689A627B68DB6A43F001027B682A
:10248000DA62012307E07B681B689B6803F00103A5
:10249000012BDCD0002318461037BD4680BD80B527
:1024A00084B000AF78607B685B6AFB60FB689B6A06
:1024B00003F05003002B27D1FB689B6A43F40072A2
:1024C000FB689A62FB681B689B6803F46023B3F5A2
:1024D000602F15D1FB681B7B002B11D1FB689B6A19
:1024E00023F48072FB689A62FB689B6A03F4805352
:1024F000002B05D1FB689B6A43F00102FB689A62DE
:10250000F868FFF70FFA04E0FB681B6A1B6B78683A
:10251000984700BF1037BD4680BD80B584B000AF7E
:1025200078607B685B6AFB60F868FFF713FE00BFAA
:102530001037BD4680BD80B584B000AF78607B6841
:102540005B6AFB60FB689B6A43F04002FB689A622F
:10255000FB68DB6A43F00402FB68DA62F868FFF7A5
:1025600002FE00BF1037BD4680BD000090B587B0A9
:1025700000AF78600023FB750023FB607B6893F855
:102580002430012B01D1022397E07B68012283F8DC
:1025900024207868FFF742FF0346FB757868FFF751
:1025A000E3FE0346FB75FB7D002B40F081807B68DA
:1025B0009B6A23F4885323F0020343F002027B68F2
:1025C0009A62404B1C68022001F0E0F90346B4FB1C
:1025D000F3F35B00FB6002E0FB68013BFB60FB6820
:1025E000002BF9D17B681B689A687B681B6842F0F6
:1025F00008029A60FFF7EEFB38611BE0FFF7EAFB89
:1026000002463B69D31A0A2B14D97B681B689B6866
:1026100003F00803002B0DD07B689B6A23F01203A4
:1026200043F010027B689A627B68002283F82420C2
:10263000012342E07B681B689B6803F00803002BC2
:10264000DCD17B681B689A687B681B6842F00402D7
:102650009A60FFF7BFFB38611BE0FFF7BBFB024648
:102660003B69D31A0A2B14D97B681B689B6803F05B
:102670000403002B0DD07B689B6A23F0120343F008
:1026800010027B689A627B68002283F82420012371
:1026900013E07B681B689B6803F00403002BDCD10C
:1026A0007B689B6A23F0030343F001027B689A6214
:1026B0007B68002283F82420FB7D18461C37BD462A
:1026C00090BD00BF0400002080B485B000AF7860EA
:1026D0007B6803F00703FB600C4BDB68BB60BA68E8
:1026E0004FF6FF031340BB60FB681A02BB6813433D
:1026F00043F0BF6343F40033BB60044ABB68D3605C
:1027000000BF1437BD4680BC704700BF00ED00E03D
:1027100080B400AF044BDB681B0A03F007031846C4
:10272000BD4680BC704700BF00ED00E080B483B0C0
:1027300000AF0346FB7197F90730002B0BDBFB79E9
:1027400003F01F02064997F907305B09012000FAE0
:1027500002F241F8232000BF0C37BD4680BC704711
:1027600000E100E080B483B000AF03463960FB7144
:1027700097F90730002B0ADB3B68DAB20C4997F96E
:1027800007301201D2B20B4483F800230AE03B6801
:10279000DAB20849FB7903F00F03043B1201D2B20D
:1027A0000B441A7600BF0C37BD4680BC704700BF93
:1027B00000E100E000ED00E080B489B000AFF86017
:1027C000B9607A60FB6803F00703FB61FB69C3F142
:1027D0000703042B28BF0423BB61FB690433062BCA
:1027E00002D9FB69033B00E000237B614FF0FF321D
:1027F000BB6902FA03F3DA43BB681A407B699A406B
:102800004FF0FF317B6901FA03F3D9437B680B403A
:10281000134318462437BD4680BC704780B582B04C
:1028200000AF78607B68013BB3F1807F01D3012367
:102830000FE00A4A7B68013B53600F214FF0FF30E5
:10284000FFF790FF054B00229A60044B07221A60A5
:10285000002318460837BD4680BD00BF10E000E0E9
:1028600080B582B000AF78607868FFF72DFF00BFB9
:102870000837BD4680BD80B586B000AF0346B9605D
:102880007A60FB7300237B61FFF742FF78617A680F
:10289000B9687869FFF790FF024697F90F30114643
:1028A0001846FFF75FFF00BF1837BD4680BD80B5F3
:1028B00082B000AF0346FB7197F907301846FFF767
:1028C00035FF00BF0837BD4680BD80B582B000AF80
:1028D00078607868FFF7A2FF034618460837BD46C0
:1028E00080BD000080B485B000AF78600023FB603D
:1028F0007B68002B01D1012343E07B681B681A46EB
:10290000224B1344224AA2FB03231B099A007B6833
:102910001A647B681F4ADA637B68022283F82120ED
:102920007B681B681B68FB60FB6823F47F5323F004
:102930003003FB607B685A687B689B681A437B683E
:10294000DB681A437B681B691A437B685B691A431F
:102950007B689B691A437B68DB691343FA681343FE
:10296000FB607B681B68FA681A607B6800229A63C8
:102970007B68012283F821207B68002283F82020D5
:10298000002318461437BD4680BC7047F8FFFDBFD2
:10299000CDCCCCCC0000024080B586B000AFF86052
:1029A000B9607A603B600023FB75FB6893F82030C8
:1029B000012B01D102234BE0FB68012283F8202088
:1029C000FB6893F82130DBB2012B3AD1FB6802227D
:1029D00083F82120FB6800229A63FB681B681A6851
:1029E000FB681B6822F001021A603B687A68B968CC
:1029F000F86800F037F9FB68DB6A002B08D0FB6849
:102A00001B681A68FB681B6842F00E021A600FE030
:102A1000FB681B681A68FB681B6822F004021A60D6
:102A2000FB681B681A68FB681B6842F00A021A60A0
:102A3000FB681B681A68FB681B6842F001021A6099
:102A400005E0FB68002283F820200223FB75FB7D54
:102A500018461837BD4680BD80B584B000AF786099
:102A60007B68DB6B1B68FB607B681B681B68BB605B
:102A70007B681B6C04229A40FB681340002B4FD0EC
:102A8000BB6803F00403002B4AD07B681B681B68FB
:102A900003F02003002B07D17B681B681A687B6852
:102AA0001B6822F004021A607B681B68664A934226
:102AB00029D07B681B68654A934222D07B681B68DB
:102AC000634A93421AD07B681B68624A934212D0D1
:102AD0007B681B68604A93420AD07B681B685F4A28
:102AE000934202D14FF480030EE04FF080630BE07D
:102AF0004FF4802308E04FF4804305E04FF48063F7
:102B000002E0402300E00423554A53607B68DB6AFF
:102B1000002B00F094807B68DB6A786898478EE031
:102B20007B681B6C02229A40FB681340002B56D036
:102B3000BB6803F00203002B51D07B681B681B6845
:102B400003F02003002B0BD17B681B681A687B689D
:102B50001B6822F00A021A607B68012283F8212098
:102B60007B681B68384A934229D07B681B68374AC8
:102B7000934222D07B681B68354A93421AD07B6807
:102B80001B68344A934212D07B681B68324A9342D6
:102B90000AD07B681B68314A934202D14FF400137C
:102BA0000EE04FF000730BE04FF4003308E04FF4F9
:102BB000005305E04FF4007302E0202300E00223FD
:102BC000274A53607B68002283F820207B689B6A39
:102BD000002B34D07B689B6A786898472FE07B682D
:102BE0001B6C08229A40FB681340002B28D0BB685E
:102BF00003F00803002B23D07B681B681A687B68EE
:102C00001B6822F00E021A607B681A6C7B68DB6B13
:102C1000012101FA02F25A607B6801229A637B6803
:102C2000012283F821207B68002283F820207B6822
:102C30001B6B002B04D07B681B6B7868984700BF28
:102C400000BF1037BD4680BD080002401C00024096
:102C50003000024044000240580002406C00024034
:102C60000000024080B485B000AFF860B9607A60BF
:102C70003B60FB681A6CFB68DB6B012101FA02F216
:102C80005A60FB681B683A685A60FB685B68102BE7
:102C900008D1FB681B687A689A60FB681B68BA6891
:102CA000DA6007E0FB681B68BA689A60FB681B681B
:102CB0007A68DA6000BF1437BD4680BC70470000F8
:102CC00080B48BB000AF7860396000237B62002352
:102CD0003B6269E101227B6A02FA03F3FB613B6814
:102CE0001B68FA691340BB61BA69FB699A4240F0FC
:102CF00058813B685B689A4A93425ED0984A9342F7
:102D000075D8984A934258D0964A93426FD8964ABB
:102D1000934252D0944A934269D8944A93424CD0F9
:102D2000924A934263D8924A934246D0904A934241
:102D30005DD8122B2AD8122B59D801A252F823F0B1
:102D4000BB2D0008952D0008A72D0008E92D0008CF
:102D5000EF2D0008EF2D0008EF2D0008EF2D0008E3
:102D6000EF2D0008EF2D0008EF2D0008EF2D0008D3
:102D7000EF2D0008EF2D0008EF2D0008EF2D0008C3
:102D8000EF2D00089D2D0008B12D0008794A9342CF
:102D900013D02CE03B68DB683B6229E03B68DB68D2
:102DA00004333B6224E03B68DB6808333B621FE08E
:102DB0003B68DB680C333B621AE03B689B68002B86
:102DC00002D104233B6213E03B689B68012B05D1D1
:102DD00008233B627B68FA691A6109E008233B62B9
:102DE0007B68FA695A6103E000233B6200E000BFA0
:102DF000BB69FF2B01D87B6801E07B6804337B61F2
:102E0000BB69FF2B02D87B6A9B0002E07B6A083B10
:102E10009B003B617B691A680F213B6901FA03F350
:102E2000DB431A40396A3B6901FA03F31A437B69B1
:102E30001A603B685B6803F08053002B00F0B180A0
:102E40004D4B9B694C4A43F0010393614A4B9B698C
:102E500003F00103BB60BB68484A7B6A9B080233EE
:102E600052F82330FB607B6A03F003039B000F22C0
:102E700002FA03F3DB43FA681340FB607B68404AC5
:102E8000934213D07B683F4A93420DD07B683E4A01
:102E9000934207D07B683D4A934201D1032306E069
:102EA000042304E0022302E0012300E000237A6A05
:102EB00002F0030292009340FA681343FB602F492B
:102EC0007B6A9B080233FA6841F823203B685B6801
:102ED00003F48013002B06D02D4B9A682C49BB6954
:102EE00013438B6006E02A4B9A68BB69DB43284991
:102EF00013408B603B685B6803F40013002B06D023
:102F0000234BDA682249BB691343CB6006E0204BB0
:102F1000DA68BB69DB431E491340CB603B685B68E2
:102F200003F40033002B06D0194B5A681849BB69CB
:102F300013434B6006E0164B5A68BB69DB431449E8
:102F400013404B603B685B6803F48033002B21D057
:102F50000F4B1A680E49BB6913430B6021E000BF99
:102F6000000032100000311000002210000021107B
:102F7000000012100000111000100240000001407B
:102F800000080140000C0140001001400014014005
:102F9000000401400B4B1A68BB69DB43094913402D
:102FA0000B607B6A01337B623B681A687B6A22FA9A
:102FB00003F3002B7FF48EAE00BF00BF2C37BD465D
:102FC00080BC70470004014080B483B000AF7860DB
:102FD0000B467B8013467B707B78002B03D07A886E
:102FE0007B681A6103E07B881A047B681A6100BF62
:102FF0000C37BD4680BC704780B582B000AF034639
:10300000FB80084B5A69FB881340002B06D0054A09
:10301000FB885361FB881846FEF7A6FC00BF083703
:10302000BD4680BD0004014080B586B000AF786029
:103030007B68002B01D1012372E27B681B6803F0DF
:103040000103002B00F08780924B5B6803F00C03B8
:10305000042B0CD08F4B5B6803F00C03082B12D1B0
:103060008C4B5B6803F48033B3F5803F0BD1894B05
:103070001B6803F40033002B6CD07B685B68002B6B
:1030800068D101234CE27B685B68B3F5803F06D1D1
:10309000804B1B687F4A43F4803313602EE07B68CB
:1030A0005B68002B0CD17B4B1B687A4A23F480337E
:1030B0001360784B1B68774A23F4802313601DE06C
:1030C0007B685B68B3F5A02F0CD1724B1B68714A0B
:1030D00043F4802313606F4B1B686E4A43F48033C4
:1030E00013600BE06B4B1B686A4A23F48033136058
:1030F000684B1B68674A23F4802313607B685B6816
:10310000002B13D0FEF766FE386108E0FEF762FE82
:1031100002463B69D31A642B01D9032300E25D4BBD
:103120001B6803F40033002BF0D014E0FEF752FECE
:10313000386108E0FEF74EFE02463B69D31A642B65
:1031400001D90323ECE1534B1B6803F40033002B3C
:10315000F0D100E000BF7B681B6803F00203002B86
:1031600063D04C4B5B6803F00C03002B0BD0494B36
:103170005B6803F00C03082B1CD1464B5B6803F41F
:103180008033002B16D1434B1B6803F00203002B46
:1031900005D07B681B69012B01D00123C0E13D4BA9
:1031A0001B6823F0F8027B685B69DB003949134335
:1031B0000B603AE07B681B69002B20D0364B012264
:1031C0001A60FEF707FE386108E0FEF703FE0246CC
:1031D0003B69D31A022B01D90323A1E12D4B1B68B4
:1031E00003F00203002BF0D02A4B1B6823F0F802F7
:1031F0007B685B69DB00274913430B6015E0264BB6
:1032000000221A60FEF7E6FD386108E0FEF7E2FDF5
:1032100002463B69D31A022B01D9032380E11D4BDF
:103220001B6803F00203002BF0D17B681B6803F0DE
:103230000803002B3AD07B689B69002B19D0174BF1
:1032400001221A60FEF7C6FD386108E0FEF7C2FDF4
:1032500002463B69D31A022B01D9032360E10D4BCF
:103260005B6A03F00203002BF0D0012000F0BAFAF1
:103270001CE00A4B00221A60FEF7ACFD38610FE03B
:10328000FEF7A8FD02463B69D31A022B08D9032397
:1032900046E100BF0010024000004242800442426A
:1032A000924B5B6A03F00203002BE9D17B681B6839
:1032B00003F00403002B00F0A6800023FB758B4B6A
:1032C000DB6903F08053002B0DD1884BDB69874A03
:1032D00043F08053D361854BDB6903F08053BB60BF
:1032E000BB680123FB75824B1B6803F48073002BC2
:1032F00018D17F4B1B687E4A43F480731360FEF73E
:1033000069FD386108E0FEF765FD02463B69D31AA6
:10331000642B01D9032303E1754B1B6803F480730D
:10332000002BF0D07B68DB68012B06D16F4B1B6A4A
:103330006E4A43F0010313622DE07B68DB68002BCB
:103340000CD16A4B1B6A694A23F001031362674B75
:103350001B6A664A23F0040313621CE07B68DB6887
:10336000052B0CD1614B1B6A604A43F004031362C6
:103370005E4B1B6A5D4A43F0010313620BE05B4B3B
:103380001B6A5A4A23F001031362584B1B6A574ABF
:1033900023F0040313627B68DB68002B15D0FEF773
:1033A00019FD38610AE0FEF715FD02463B69D31AA4
:1033B00041F28832934201D90323B1E04B4B1B6A9F
:1033C00003F00203002BEED014E0FEF703FD38619A
:1033D0000AE0FEF7FFFC02463B69D31A41F288324D
:1033E000934201D903239BE0404B1B6A03F0020385
:1033F000002BEED1FB7D012B05D13C4BDB693B4A19
:1034000023F08053D3617B68DB69002B00F0878059
:10341000364B5B6803F00C03082B61D07B68DB69DB
:10342000022B46D1334B00221A60FEF7D3FC3861E1
:1034300008E0FEF7CFFC02463B69D31A022B01D904
:1034400003236DE0294B1B6803F00073002BF0D1C0
:103450007B681B6AB3F5803F08D1244B5B6823F47B
:1034600000327B689B68214913434B601F4B5B68AC
:1034700023F474127B68196A7B685B6A0B431B49EF
:1034800013434B601B4B01221A60FEF7A3FC38610B
:1034900008E0FEF79FFC02463B69D31A022B01D9D4
:1034A00003233DE0114B1B6803F00073002BF0D0A9
:1034B00035E0104B00221A60FEF78CFC386108E002
:1034C000FEF788FC02463B69D31A022B01D903237D
:1034D00026E0064B1B6803F00073002BF0D11EE0C2
:1034E0007B68DB69012B07D1012319E00010024042
:1034F00000700040600042420B4B5B68FB60FB6861
:1035000003F480327B681B6A9A4206D1FB6803F49D
:1035100070127B685B6A9A4201D0012300E00023AD
:1035200018461837BD4680BD0010024080B584B0F3
:1035300000AF786039607B68002B01D10123D0E0B7
:103540006A4B1B6803F007033A689A4210D9674B2D
:103550001B6823F0070265493B6813430B60634B0C
:103560001B6803F007033A689A4201D00123B8E0D0
:103570007B681B6803F00203002B20D07B681B686C
:1035800003F00403002B05D0594B5B68584A43F401
:10359000E06353607B681B6803F00803002B05D0D1
:1035A000534B5B68524A43F460535360504B5B6823
:1035B00023F0F0027B689B684D4913434B607B68A6
:1035C0001B6803F00103002B40D07B685B68012B74
:1035D00007D1474B1B6803F40033002B15D101239F
:1035E0007FE07B685B68022B07D1414B1B6803F0CF
:1035F0000073002B09D1012373E03D4B1B6803F0DE
:103600000203002B01D101236BE0394B5B6823F0EF
:1036100003027B685B68364913434B60FEF7DAFBB5
:10362000F8600AE0FEF7D6FB0246FB68D31A41F2C7
:103630008832934201D9032353E02D4B5B6803F09A
:103640000C027B685B689B009A42EBD1274B1B689E
:1036500003F007033A689A4210D2244B1B6823F008
:10366000070222493B6813430B60204B1B6803F0A1
:1036700007033A689A4201D0012332E07B681B6855
:1036800003F00403002B08D0194B5B6823F4E062BD
:103690007B68DB68164913434B607B681B6803F04B
:1036A0000803002B09D0124B5B6823F460527B683F
:1036B0001B69DB000E4913434B6000F021F8024602
:1036C0000B4B5B681B0903F00F030A49CB5C22FA22
:1036D00003F3094A1360094B1B681846FEF738FBD1
:1036E000002318461037BD4680BD00BF00200240B1
:1036F00000100240344C00080400002008000020A4
:1037000080B487B000AF0023FB600023BB600023C0
:103710007B6100237B6000233B611E4B5B68FB6089
:10372000FB6803F00C03042B02D0082B03D027E026
:10373000194B3B6127E0FB689B0C03F00F03174A12
:10374000D35C7B60FB6803F48033002B10D0114BFB
:103750005B685B0C03F00103114AD35CBB607B68C0
:103760000D4A03FB02F2BB68B2FBF3F37B6104E09A
:103770007B680C4A02FB03F37B617B693B6102E0DF
:10378000054B3B6100BF3B6918461C37BD4680BCFA
:10379000704700BF0010024000127A004C4C000835
:1037A0005C4C000800093D0080B400AF024B1B6870
:1037B0001846BD4680BC70470400002080B500AFAD
:1037C000FFF7F2FF0246054B5B68DB0A03F00703D5
:1037D0000349CB5C22FA03F3184680BD0010024077
:1037E000444C000880B485B000AF78600A4B1B6879
:1037F0000A4AA2FB03235B0A7A6802FB03F3FB601D
:1038000000BFFB685A1EFA60002BF9D100BF00BF51
:103810001437BD4680BC704704000020D34D6210B1
:1038200080B586B000AF786000233B610023FB6069
:103830007B681B6803F00103002B7DD00023FB7520
:103840004F4BDB6903F08053002B0DD14C4BDB69F0
:103850004B4A43F08053D361494BDB6903F08053FB
:10386000BB60BB680123FB75464B1B6803F4807388
:10387000002B18D1434B1B68424A43F480731360FA
:10388000FEF7A8FA386108E0FEF7A4FA02463B69A1
:10389000D31A642B01D903236DE03A4B1B6803F460
:1038A0008073002BF0D0364B1B6A03F44073FB602F
:1038B000FB68002B2ED07B685B6803F44073FA68CA
:1038C0009A4227D02E4B1B6A23F44073FB602E4B89
:1038D00001221A602C4B00221A60294AFB681362ED
:1038E000FB6803F00103002B14D0FEF773FA386174
:1038F0000AE0FEF76FFA02463B69D31A41F28832BA
:10390000934201D9032336E01D4B1B6A03F00203E7
:10391000002BEED01A4B1B6A23F440727B685B6865
:10392000174913430B62FB7D012B05D1144BDB6957
:10393000134A23F08053D3617B681B6803F00203B2
:10394000002B08D00E4B5B6823F440427B689B68D9
:103950000B4913434B607B681B6803F01003002B7B
:1039600008D0074B5B6823F480027B68DB6804495E
:1039700013434B60002318461837BD4680BD00BF77
:1039800000100240007000404004424280B588B000
:1039900000AF786000237B610023FB6100233B6163
:1039A0000023FB600023BB617B68102B0AD07B687F
:1039B000102B00F28A807B68012B45D07B68022B9C
:1039C00075D082E0464B5B68FB60454B1B6803F09B
:1039D0008073002B7BD0FB689B0C03F00F03414AE4
:1039E000D35C3B61FB6803F48033002B15D03C4B68
:1039F0005B685B0C03F001033B4AD35C7B61FB68B3
:103A000003F48033002B0DD0384A7B69B2FBF3F20C
:103A10003B6902FB03F3FB6104E03B69344A02FBB0
:103A200003F3FB612E4B5B6803F48003B3F5800F57
:103A300002D1FB69BB614AE0FB695B002D4AA2FB36
:103A400003235B08BB6142E0254B1B6AFB60FB68FC
:103A500003F44073B3F5807F08D1FB6803F00203E1
:103A6000002B03D04FF40043BB611FE0FB6803F45D
:103A70004073B3F5007F09D1194B5B6A03F0020371
:103A8000002B03D049F64043BB610FE0FB6803F411
:103A90004073B3F5407F1CD1114B1B6803F4003316
:103AA000002B16D04FF22443BB6112E011E0FFF768
:103AB00085FE02460A4B5B689B0B03F00303013350
:103AC0005B00B2FBF3F3BB6104E000BF02E000BFA8
:103AD00000E000BFBB6918462037BD4680BD00BF6F
:103AE00000100240604C0008704C000800127A0080
:103AF00000093D00ABAAAAAA80B582B000AF7860E9
:103B00007B68002B01D1012341E07B6893F83D30B5
:103B1000DBB2002B06D17B68002283F83C2078685A
:103B2000FDF7F0FF7B68022283F83D207B681A686E
:103B30007B6804331946104600F030FC7B68012294
:103B400083F846207B68012283F83E207B680122AF
:103B500083F83F207B68012283F840207B680122A4
:103B600083F841207B68012283F842207B68012290
:103B700083F843207B68012283F844207B6801227C
:103B800083F845207B68012283F83D2000231846F6
:103B90000837BD4680BD000080B485B000AF7860B6
:103BA0007B6893F83D30DBB2012B01D001233AE072
:103BB0007B68022283F83D207B681B68DA687B689B
:103BC0001B6842F00102DA607B681B68184A934266
:103BD0000ED07B681B68B3F1804F09D07B681B68EF
:103BE000144A934204D07B681B68134A934211D154
:103BF0007B681B689B6803F00703FB60FB68062B70
:103C000010D07B681B681A687B681B6842F0010251
:103C10001A6007E07B681B681A687B681B6842F0C3
:103C200001021A60002318461437BD4680BC704755
:103C3000002C0140000400400008004080B582B024
:103C400000AF78607B68002B01D1012341E07B68E5
:103C500093F83D30DBB2002B06D17B68002283F85D
:103C60003C20786800F039F87B68022283F83D2018
:103C70007B681A687B6804331946104600F08EFB97
:103C80007B68012283F846207B68012283F83E206E
:103C90007B68012283F83F207B68012283F8402063
:103CA0007B68012283F841207B68012283F842204F
:103CB0007B68012283F843207B68012283F844203B
:103CC0007B68012283F845207B68012283F83D2030
:103CD000002318460837BD4680BD80B483B000AFCE
:103CE000786000BF0C37BD4680BC704780B584B09B
:103CF00000AF786039603B68002B09D17B6893F88E
:103D00003E30DBB2012B14BF01230023DBB222E0E3
:103D10003B68042B09D17B6893F83F30DBB2012B61
:103D200014BF01230023DBB215E03B68082B09D147
:103D30007B6893F84030DBB2012B14BF01230023D2
:103D4000DBB208E07B6893F84130DBB2012B14BF93
:103D500001230023DBB2002B01D001235EE03B688E
:103D6000002B04D17B68022283F83E2013E03B68DD
:103D7000042B04D17B68022283F83F200BE03B68D0
:103D8000082B04D17B68022283F8402003E07B6883
:103D9000022283F841207B681B680122396818469B
:103DA00000F07CFD7B681B681E4A934207D17B684C
:103DB0001B685A6C7B681B6842F400425A647B683B
:103DC0001B68184A93420ED07B681B68B3F1804F82
:103DD00009D07B681B68144A934204D07B681B6837
:103DE000124A934211D17B681B689B6803F007035A
:103DF000FB60FB68062B10D07B681B681A687B6829
:103E00001B6842F001021A6007E07B681B681A68B1
:103E10007B681B6842F001021A60002318461037C5
:103E2000BD4680BD002C0140000400400008004059
:103E300080B582B000AF78607B681B681B6903F0B7
:103E40000203022B22D17B681B68DB6803F00203AC
:103E5000022B1BD17B681B686FF002021A617B6822
:103E600001221A777B681B689B6903F00303002B10
:103E700003D0786800F076FA05E0786800F069FA17
:103E8000786800F078FA7B6800221A777B681B68F4
:103E90001B6903F00403042B22D17B681B68DB68D9
:103EA00003F00403042B1BD17B681B686FF0040232
:103EB0001A617B6802221A777B681B689B6903F48E
:103EC0004073002B03D0786800F04CFA05E0786866
:103ED00000F03FFA786800F04EFA7B6800221A770B
:103EE0007B681B681B6903F00803082B22D17B68E1
:103EF0001B68DB6803F00803082B1BD17B681B6879
:103F00006FF008021A617B6804221A777B681B68CD
:103F1000DB6903F00303002B03D0786800F022FA7A
:103F200005E0786800F015FA786800F024FA7B68FC
:103F300000221A777B681B681B6903F01003102BA3
:103F400022D17B681B68DB6803F01003102B1BD1A8
:103F50007B681B686FF010021A617B6808221A7771
:103F60007B681B68DB6903F44073002B03D078681F
:103F700000F0F8F905E0786800F0EBF9786800F0F7
:103F8000FAF97B6800221A777B681B681B6903F0CB
:103F90000103012B0ED17B681B68DB6803F0010372
:103FA000012B07D17B681B686FF001021A617868EA
:103FB000FDF7F0FC7B681B681B6903F08003802B16
:103FC0000ED17B681B68DB6803F08003802B07D170
:103FD0007B681B686FF080021A61786800F0E9FC6A
:103FE0007B681B681B6903F04003402B0ED17B6884
:103FF0001B68DB6803F04003402B07D17B681B681C
:104000006FF040021A61786800F0BEF97B681B68A7
:104010001B6903F02003202B0ED17B681B68DB6833
:1040200003F02003202B07D17B681B686FF0200270
:104030001A61786800F0B4FC00BF0837BD4680BD47
:1040400080B586B000AFF860B9607A600023FB7578
:10405000FB6893F83C30012B01D10223AEE0FB68F2
:10406000012283F83C207B680C2B00F29F8001A288
:1040700052F823F0A9400008AD410008AD41000806
:10408000AD410008E9400008AD410008AD4100081D
:10409000AD4100082B410008AD410008AD410008CA
:1040A000AD4100086B410008FB681B68B968184601
:1040B00000F0D6F9FB681B689A69FB681B6842F040
:1040C00008029A61FB681B689A69FB681B6822F00A
:1040D00004029A61FB681B689969BB681A69FB68EE
:1040E0001B680A439A6164E0FB681B68B96818465C
:1040F00000F01CFAFB681B689A69FB681B6842F4B5
:1041000000629A61FB681B689A69FB681B6822F46D
:1041100080629A61FB681B689969BB681B691A0217
:10412000FB681B680A439A6143E0FB681B68B96837
:10413000184600F065FAFB681B68DA69FB681B68C3
:1041400042F00802DA61FB681B68DA69FB681B68E9
:1041500022F00402DA61FB681B68D969BB681A693E
:10416000FB681B680A43DA6123E0FB681B68B968D7
:10417000184600F0AFFAFB681B68DA69FB681B6839
:1041800042F40062DA61FB681B68DA69FB681B684D
:1041900022F48062DA61FB681B68D969BB681B691D
:1041A0001A02FB681B680A43DA6102E00123FB750F
:1041B00000BFFB68002283F83C20FB7D18461837BF
:1041C000BD4680BD80B584B000AF78603960002303
:1041D000FB737B6893F83C30012B01D10223B4E0E0
:1041E0007B68012283F83C207B68022283F83D2013
:1041F0007B681B689B68BB60BB6823F07703BB6070
:10420000BB6823F47F43BB607B681B68BA689A6015
:104210003B681B68B3F5005F3ED0B3F5005F00F26A
:104220008780B3F5805F00F08680B3F5805F7FD82C
:10423000702B1AD0702B7BD8602B50D0602B77D886
:10424000502B3CD0502B73D8402B58D0402B6FD8DC
:10425000302B64D0302B6BD8202B60D0202B67D82C
:10426000002B5CD0102B5AD062E07B6818683B684A
:1042700099683B685A683B68DB6800F0F0FA7B6835
:104280001B689B68BB60BB6843F07703BB607B68BF
:104290001B68BA689A604FE07B6818683B68996849
:1042A0003B685A683B68DB6800F0D9FA7B681B689A
:1042B0009A687B681B6842F480429A603CE07B68A5
:1042C00018683B6859683B68DB681A4600F050FA8A
:1042D0007B681B685021184600F0A7FA2CE07B6829
:1042E00018683B6859683B68DB681A4600F06EFA4C
:1042F0007B681B686021184600F097FA1CE07B6819
:1043000018683B6859683B68DB681A4600F030FA69
:104310007B681B684021184600F087FA0CE07B6838
:104320001A683B681B681946104600F07EFA03E0E5
:104330000123FB7300E000BF7B68012283F83D206E
:104340007B68002283F83C20FB7B18461037BD4673
:1043500080BD80B483B000AF786000BF0C37BD462D
:1043600080BC704780B483B000AF786000BF0C376A
:10437000BD4680BC704780B483B000AF786000BF9A
:104380000C37BD4680BC704780B483B000AF786006
:1043900000BF0C37BD4680BC7047000080B485B0BC
:1043A00000AF786039607B681B68FB607B68294AD6
:1043B00093420BD07B68B3F1804F07D07B68264ACD
:1043C000934203D07B68254A934208D1FB6823F0CF
:1043D0007003FB603B685B68FA681343FB607B68B3
:1043E0001C4A93420BD07B68B3F1804F07D07B68A7
:1043F000194A934203D07B68184A934208D1FB685C
:1044000023F44073FB603B68DB68FA681343FB608E
:10441000FB6823F080023B685B691343FB607B68A9
:10442000FA681A603B689A687B68DA623B681A68C7
:104430007B689A627B68074A934203D13B681A699A
:104440007B681A637B6801225A6100BF1437BD463E
:1044500080BC7047002C0140000400400008004070
:1044600080B487B000AF786039607B681B6A7B617D
:104470007B681B6A23F001027B681A627B685B68B9
:104480003B617B689B69FB60FB6823F07003FB600A
:10449000FB6823F00303FB603B681B68FA68134367
:1044A000FB607B6923F002037B613B689B687A6950
:1044B00013437B617B681C4A93420CD17B6923F0D8
:1044C00008037B613B68DB687A6913437B617B6926
:1044D00023F004037B617B68134A934211D13B694B
:1044E00023F480733B613B6923F400733B613B68B9
:1044F0005B693A6913433B613B689B693A691343C3
:104500003B617B683A695A607B68FA689A613B68EC
:104510005A687B685A637B687A691A6200BF1C37E5
:10452000BD4680BC704700BF002C014080B487B0FE
:1045300000AF786039607B681B6A7B617B681B6AAF
:1045400023F010027B681A627B685B683B617B68C2
:104550009B69FB60FB6823F4E043FB60FB6823F48A
:104560004073FB603B681B681B02FA681343FB60E7
:104570007B6923F020037B613B689B681B017A69A0
:1045800013437B617B681D4A93420DD17B6923F005
:1045900080037B613B68DB681B017A6913437B61A5
:1045A0007B6923F040037B617B68144A934213D1FB
:1045B0003B6923F480633B613B6923F400633B6107
:1045C0003B685B699B003A6913433B613B689B69AD
:1045D0009B003A6913433B617B683A695A607B6888
:1045E000FA689A613B685A687B689A637B687A6963
:1045F0001A6200BF1C37BD4680BC7047002C0140CA
:1046000080B487B000AF786039607B681B6A7B61DB
:104610007B681B6A23F480727B681A627B685B6824
:104620003B617B68DB69FB60FB6823F07003FB6028
:10463000FB6823F00303FB603B681B68FA681343C5
:10464000FB607B6923F400737B613B689B681B0202
:104650007A6913437B617B681D4A93420DD17B6964
:1046600023F400637B613B68DB681B027A691343B8
:104670007B617B6923F480637B617B68144A93428E
:1046800013D13B6923F480533B613B6923F400530E
:104690003B613B685B691B013A6913433B613B68C3
:1046A0009B691B013A6913433B617B683A695A6015
:1046B0007B68FA68DA613B685A687B68DA637B6812
:1046C0007A691A6200BF1C37BD4680BC704700BFC4
:1046D000002C014080B487B000AF786039607B68FF
:1046E0001B6A3B617B681B6A23F480527B681A62F9
:1046F0007B685B687B617B68DB69FB60FB6823F43C
:10470000E043FB60FB6823F44073FB603B681B687D
:104710001B02FA681343FB603B6923F400533B61BF
:104720003B689B681B033A6913433B617B680F4AF4
:10473000934209D17B6923F480437B613B685B69C9
:104740009B017A6913437B617B687A695A607B6855
:10475000FA68DA613B685A687B681A647B683A6970
:104760001A6200BF1C37BD4680BC7047002C014058
:1047700080B487B000AFF860B9607A60FB681B6AEC
:104780007B61FB681B6A23F00102FB681A62FB680D
:104790009B693B613B6923F0F0033B617B681B0134
:1047A0003A6913433B617B6923F00A037B617A69B1
:1047B000BB6813437B61FB683A699A61FB687A695D
:1047C0001A6200BF1C37BD4680BC704780B487B0FA
:1047D00000AFF860B9607A60FB681B6A7B61FB68B8
:1047E0001B6A23F01002FB681A62FB689B693B613D
:1047F0003B6923F470433B617B681B033A691343B5
:104800003B617B6923F0A0037B61BB681B017A6974
:1048100013437B61FB683A699A61FB687A691A62A3
:1048200000BF1C37BD4680BC704780B485B000AF68
:10483000786039607B689B68FB60FB6823F07003DD
:10484000FB603A68FB68134343F00703FB607B6837
:10485000FA689A6000BF1437BD4680BC704780B4C8
:1048600087B000AFF860B9607A603B60FB689B6816
:104870007B617B6923F47F437B613B681A027B6821
:104880001A43BB6813437A6913437B61FB687A69F7
:104890009A6000BF1C37BD4680BC704780B487B0AB
:1048A00000AFF860B9607A60BB6803F01F030122B3
:1048B00002FA03F37B61FB681A6A7B69DB431A40E7
:1048C000FB681A62FB681A6ABB6803F01F03796809
:1048D00001FA03F31A43FB681A6200BF1C37BD4696
:1048E00080BC704780B485B000AF786039607B6869
:1048F00093F83C30012B01D1022346E07B68012272
:1049000083F83C207B68022283F83D207B681B688B
:104910005B68FB607B681B689B68BB60FB6823F07F
:104920007003FB603B681B68FA681343FB607B689D
:104930001B68FA685A607B681B68164A93420ED05F
:104940007B681B68B3F1804F09D07B681B68124AF3
:10495000934204D07B681B68104A93420CD1BB6819
:1049600023F08003BB603B685B68BA681343BB609D
:104970007B681B68BA689A607B68012283F83D20D7
:104980007B68002283F83C20002318461437BD467C
:1049900080BC7047002C014000040040000800402B
:1049A00080B483B000AF786000BF0C37BD4680BCD8
:1049B000704780B483B000AF786000BF0C37BD464D
:1049C00080BC704703460244934200D1704703F80D
:1049D000011BF9E7014B1868704700BF1000002069
:1049E00070B500260C4D0D4C641BA410A64209D1D5
:1049F00000F014F900260A4D0A4C641BA410A642CC
:104A000005D170BD55F8043B98470136EEE755F8DF
:104A1000043B98470136F2E7744C0008744C0008D8
:104A2000744C0008784C0008F8B506460F4600F0B4
:104A30001FF8324604460D463B4630463946FBF7E2
:104A4000DDFF90B90022002330463946FBF7AEFF68
:104A500058B1FFF7BFFF2123002203600023104657
:104A60001946FBF75BFE04460D4620462946F8BD75
:104A7000674A2DE9F84F8A4306460F460B4604461F
:104A80000ED10246FBF720FD02460B463046394662
:104A9000FBF764FB06460F4630463946BDE8F88F03
:104AA00000290CDC21F000420243F5D089B1024616
:104AB000FBF752FB02460B46FBF730FEEAE70A150E
:104AC00015D1002109E0E30A153A6405002BFAD05C
:104AD000F7E70A46FAE75B000131D802FBD5481E2A
:104AE000121AC1F1200024FA00F003438C40002682
:104AF000A2F2FF371621D2074FF400103246C3F35B
:104B0000130343F480135CBF5B0003EBD4734FEAE1
:104B1000430358BF640003EBD4737F10640015187F
:104B20009D42DEBF2A185B1B3618E50F013905EBE5
:104B300043034FEA44044FEA5000F0D10D464FF0D2
:104B4000200A4FF000409A4201EB000C02DB13D127
:104B5000A44511D8BCF1000F0CEB000142DA00298A
:104B600040DB02F1010E9B1A7246A44588BF03F197
:104B7000FF33A4EB0C0405444FEAD47CBAF1010ADC
:104B80000CEB43034FEA44044FEA5000DBD11C43D3
:104B90001AD0204CDFF880B0D4E90001DBE9002313
:104BA000FBF7DAFAD4E9008902460B46404649464B
:104BB000FBF706FF40B1D4E90001DBE90023B5F1C2
:104BC000FF3F11D15546013672106B08F10702F113
:104BD0007F5202F5001248BF43F00043184602EB33
:104BE000075157E79646BEE7FBF7B8FAD4E90089C4
:104BF00002460B4640464946FBF7D8FE20B1A81CAA
:104C000008BF01360235DFE76B1C23F00105DBE747
:104C10000000F07F6800002060000020F8B500BFB1
:104C2000F8BC08BC9E467047F8B500BFF8BC08BC8D
:044C30009E467047E5
:104C34000000000000000000010203040607080948
:104C4400000000000102030402030405060708092A
:104C54000A0B0C0D0E0F10100102000002030405D4
:104C6400060708090A0B0C0D0E0F101001020000B4
:044C740035010008FE
:044C7800110100081E
:104C7C002C0101000024F4001000000001000000D1
:104C8C001400002000000000D40500203C06002089
:104C9C00A40600200000000000000000000000003E
:104CAC0000000000000000000000000000000000F8
:104CBC0000000000000000000000000000000000E8
:104CCC0000000000000000000000000000000000D8
:104CDC0059F3F8C21F6EA501000000000000F03F60
:0400000508001CD9FA
:00000001FF
